{
  "contractName": "SupplyChainList",
  "abi": [
    {
      "constant": true,
      "inputs": [
        {
          "name": "",
          "type": "uint256"
        }
      ],
      "name": "eggBoxes",
      "outputs": [
        {
          "name": "id",
          "type": "uint256"
        },
        {
          "name": "barcode",
          "type": "uint256"
        },
        {
          "name": "farmer",
          "type": "address"
        },
        {
          "name": "timestamp",
          "type": "uint256"
        },
        {
          "name": "longitude",
          "type": "uint256"
        },
        {
          "name": "latitude",
          "type": "uint256"
        }
      ],
      "payable": false,
      "stateMutability": "view",
      "type": "function"
    },
    {
      "inputs": [],
      "payable": false,
      "stateMutability": "nonpayable",
      "type": "constructor"
    },
    {
      "constant": false,
      "inputs": [
        {
          "name": "barcode",
          "type": "uint256"
        },
        {
          "name": "longitude",
          "type": "uint256"
        },
        {
          "name": "latitude",
          "type": "uint256"
        }
      ],
      "name": "createEggBox",
      "outputs": [],
      "payable": false,
      "stateMutability": "nonpayable",
      "type": "function"
    },
    {
      "constant": true,
      "inputs": [
        {
          "name": "id",
          "type": "uint256"
        }
      ],
      "name": "getEggBox",
      "outputs": [
        {
          "name": "barcode",
          "type": "uint256"
        },
        {
          "name": "farmer",
          "type": "address"
        },
        {
          "name": "timestamp",
          "type": "uint256"
        },
        {
          "name": "longitude",
          "type": "uint256"
        },
        {
          "name": "latitude",
          "type": "uint256"
        }
      ],
      "payable": false,
      "stateMutability": "view",
      "type": "function"
    }
  ],
  "bytecode": "0x608060405234801561001057600080fd5b5033600260006101000a81548173ffffffffffffffffffffffffffffffffffffffff021916908373ffffffffffffffffffffffffffffffffffffffff160217905550600060018190555061045d806100696000396000f300608060405260043610610057576000357c0100000000000000000000000000000000000000000000000000000000900463ffffffff168063158cadba1461005c5780639abd74a2146100e5578063ec014a0114610126575b600080fd5b34801561006857600080fd5b50610087600480360381019080803590602001909291905050506101b6565b604051808681526020018573ffffffffffffffffffffffffffffffffffffffff1673ffffffffffffffffffffffffffffffffffffffff1681526020018481526020018381526020018281526020019550505050505060405180910390f35b3480156100f157600080fd5b5061012460048036038101908080359060200190929190803590602001909291908035906020019092919050505061029b565b005b34801561013257600080fd5b5061015160048036038101908080359060200190929190505050610388565b604051808781526020018681526020018573ffffffffffffffffffffffffffffffffffffffff1673ffffffffffffffffffffffffffffffffffffffff168152602001848152602001838152602001828152602001965050505050505060405180910390f35b60008060008060006101c66103e4565b60008088815260200190815260200160002060c0604051908101604052908160008201548152602001600182015481526020016002820160009054906101000a900473ffffffffffffffffffffffffffffffffffffffff1673ffffffffffffffffffffffffffffffffffffffff1673ffffffffffffffffffffffffffffffffffffffff16815260200160038201548152602001600482015481526020016005820154815250509050806020015195508060400151945080606001519350806080015192508060a0015191505091939590929450565b60016000815480929190600101919050555060c06040519081016040528060015481526020018481526020013373ffffffffffffffffffffffffffffffffffffffff168152602001428152602001838152602001828152506000806001548152602001908152602001600020600082015181600001556020820151816001015560408201518160020160006101000a81548173ffffffffffffffffffffffffffffffffffffffff021916908373ffffffffffffffffffffffffffffffffffffffff160217905550606082015181600301556080820151816004015560a08201518160050155905050505050565b60006020528060005260406000206000915090508060000154908060010154908060020160009054906101000a900473ffffffffffffffffffffffffffffffffffffffff16908060030154908060040154908060050154905086565b60c0604051908101604052806000815260200160008152602001600073ffffffffffffffffffffffffffffffffffffffff16815260200160008152602001600081526020016000815250905600a165627a7a72305820804be60b95ef383272b8d6e97957d313af8e92640a55ca407ea8b423c06e38750029",
  "source": "pragma solidity ^0.4.18;\n\ncontract SupplyChainList {\n\n    struct EggBox {\n        uint id;\n        uint barcode;\n        address farmer;\n        uint timestamp;\n        uint longitude;\n        uint latitude;\n    }\n\n    mapping (uint => EggBox) public eggBoxes;\n    uint eggBoxCounter;\n\n    address contractOwner;\n\n    function SupplyChainList() public {\n        contractOwner = msg.sender;\n        eggBoxCounter = 0;\n    }\n\n    function createEggBox(uint barcode, uint longitude, uint latitude) public{\n        eggBoxCounter++;\n        eggBoxes[eggBoxCounter] = EggBox(\n            eggBoxCounter,\n            barcode,\n            msg.sender,\n            now,\n            longitude,\n            latitude\n        );\n    }\n\n    function getEggBox(uint id) public view returns (\n            uint barcode, address farmer, uint timestamp, uint longitude, uint latitude) {\n        EggBox memory eggbox = eggBoxes[id];\n        //return (eggbox.barcode, eggbox.farmer, eggbox.timestamp, eggbox.longitude, eggbox.latitude);\n        barcode = eggbox.barcode;\n        farmer = eggbox.farmer;\n        timestamp = eggbox.timestamp;\n        longitude = eggbox.longitude;\n        latitude = eggbox.latitude;\n    }\n}",
  "sourcePath": "/home/marko/hlag2018/eggxchain/contracts/SupplyChainList.sol",
  "compiler": {
    "name": "solc",
    "version": "0.4.24+commit.e67f0147.Emscripten.clang"
  },
  "schemaVersion": "2.0.0",
  "updatedAt": "2018-10-06T13:35:18.355Z"
}